{
  "contractName": "Kap721",
  "abi": [
    {
      "inputs": [],
      "stateMutability": "nonpayable",
      "type": "constructor"
    },
    {
      "anonymous": false,
      "inputs": [
        {
          "indexed": true,
          "internalType": "address",
          "name": "owner",
          "type": "address"
        },
        {
          "indexed": true,
          "internalType": "address",
          "name": "approved",
          "type": "address"
        },
        {
          "indexed": true,
          "internalType": "uint256",
          "name": "tokenId",
          "type": "uint256"
        }
      ],
      "name": "Approval",
      "type": "event"
    },
    {
      "anonymous": false,
      "inputs": [
        {
          "indexed": true,
          "internalType": "address",
          "name": "owner",
          "type": "address"
        },
        {
          "indexed": true,
          "internalType": "address",
          "name": "operator",
          "type": "address"
        },
        {
          "indexed": false,
          "internalType": "bool",
          "name": "approved",
          "type": "bool"
        }
      ],
      "name": "ApprovalForAll",
      "type": "event"
    },
    {
      "anonymous": false,
      "inputs": [
        {
          "indexed": true,
          "internalType": "address",
          "name": "from",
          "type": "address"
        },
        {
          "indexed": true,
          "internalType": "address",
          "name": "to",
          "type": "address"
        },
        {
          "indexed": true,
          "internalType": "uint256",
          "name": "tokenId",
          "type": "uint256"
        }
      ],
      "name": "Transfer",
      "type": "event"
    },
    {
      "inputs": [
        {
          "internalType": "address",
          "name": "to",
          "type": "address"
        },
        {
          "internalType": "uint256",
          "name": "tokenId",
          "type": "uint256"
        }
      ],
      "name": "approve",
      "outputs": [],
      "stateMutability": "nonpayable",
      "type": "function"
    },
    {
      "inputs": [
        {
          "internalType": "address",
          "name": "owner",
          "type": "address"
        }
      ],
      "name": "balanceOf",
      "outputs": [
        {
          "internalType": "uint256",
          "name": "",
          "type": "uint256"
        }
      ],
      "stateMutability": "view",
      "type": "function",
      "constant": true
    },
    {
      "inputs": [
        {
          "internalType": "uint256",
          "name": "tokenId",
          "type": "uint256"
        }
      ],
      "name": "getApproved",
      "outputs": [
        {
          "internalType": "address",
          "name": "",
          "type": "address"
        }
      ],
      "stateMutability": "view",
      "type": "function",
      "constant": true
    },
    {
      "inputs": [
        {
          "internalType": "address",
          "name": "owner",
          "type": "address"
        },
        {
          "internalType": "address",
          "name": "operator",
          "type": "address"
        }
      ],
      "name": "isApprovedForAll",
      "outputs": [
        {
          "internalType": "bool",
          "name": "",
          "type": "bool"
        }
      ],
      "stateMutability": "view",
      "type": "function",
      "constant": true
    },
    {
      "inputs": [],
      "name": "name",
      "outputs": [
        {
          "internalType": "string",
          "name": "",
          "type": "string"
        }
      ],
      "stateMutability": "view",
      "type": "function",
      "constant": true
    },
    {
      "inputs": [
        {
          "internalType": "uint256",
          "name": "",
          "type": "uint256"
        }
      ],
      "name": "nfts",
      "outputs": [
        {
          "internalType": "uint256",
          "name": "tokenId",
          "type": "uint256"
        },
        {
          "internalType": "string",
          "name": "tokenURI",
          "type": "string"
        }
      ],
      "stateMutability": "view",
      "type": "function",
      "constant": true
    },
    {
      "inputs": [
        {
          "internalType": "uint256",
          "name": "tokenId",
          "type": "uint256"
        }
      ],
      "name": "ownerOf",
      "outputs": [
        {
          "internalType": "address",
          "name": "",
          "type": "address"
        }
      ],
      "stateMutability": "view",
      "type": "function",
      "constant": true
    },
    {
      "inputs": [
        {
          "internalType": "address",
          "name": "from",
          "type": "address"
        },
        {
          "internalType": "address",
          "name": "to",
          "type": "address"
        },
        {
          "internalType": "uint256",
          "name": "tokenId",
          "type": "uint256"
        }
      ],
      "name": "safeTransferFrom",
      "outputs": [],
      "stateMutability": "nonpayable",
      "type": "function"
    },
    {
      "inputs": [
        {
          "internalType": "address",
          "name": "from",
          "type": "address"
        },
        {
          "internalType": "address",
          "name": "to",
          "type": "address"
        },
        {
          "internalType": "uint256",
          "name": "tokenId",
          "type": "uint256"
        },
        {
          "internalType": "bytes",
          "name": "data",
          "type": "bytes"
        }
      ],
      "name": "safeTransferFrom",
      "outputs": [],
      "stateMutability": "nonpayable",
      "type": "function"
    },
    {
      "inputs": [
        {
          "internalType": "address",
          "name": "operator",
          "type": "address"
        },
        {
          "internalType": "bool",
          "name": "approved",
          "type": "bool"
        }
      ],
      "name": "setApprovalForAll",
      "outputs": [],
      "stateMutability": "nonpayable",
      "type": "function"
    },
    {
      "inputs": [
        {
          "internalType": "bytes4",
          "name": "interfaceId",
          "type": "bytes4"
        }
      ],
      "name": "supportsInterface",
      "outputs": [
        {
          "internalType": "bool",
          "name": "",
          "type": "bool"
        }
      ],
      "stateMutability": "view",
      "type": "function",
      "constant": true
    },
    {
      "inputs": [],
      "name": "symbol",
      "outputs": [
        {
          "internalType": "string",
          "name": "",
          "type": "string"
        }
      ],
      "stateMutability": "view",
      "type": "function",
      "constant": true
    },
    {
      "inputs": [
        {
          "internalType": "uint256",
          "name": "tokenId",
          "type": "uint256"
        }
      ],
      "name": "tokenURI",
      "outputs": [
        {
          "internalType": "string",
          "name": "",
          "type": "string"
        }
      ],
      "stateMutability": "view",
      "type": "function",
      "constant": true
    },
    {
      "inputs": [
        {
          "internalType": "address",
          "name": "from",
          "type": "address"
        },
        {
          "internalType": "address",
          "name": "to",
          "type": "address"
        },
        {
          "internalType": "uint256",
          "name": "tokenId",
          "type": "uint256"
        }
      ],
      "name": "transferFrom",
      "outputs": [],
      "stateMutability": "nonpayable",
      "type": "function"
    },
    {
      "inputs": [
        {
          "internalType": "address",
          "name": "player",
          "type": "address"
        },
        {
          "internalType": "string",
          "name": "tokenURI",
          "type": "string"
        }
      ],
      "name": "NFTEservice",
      "outputs": [
        {
          "internalType": "uint256",
          "name": "",
          "type": "uint256"
        }
      ],
      "stateMutability": "nonpayable",
      "type": "function"
    },
    {
      "inputs": [],
      "name": "countNFTs",
      "outputs": [
        {
          "internalType": "uint256",
          "name": "",
          "type": "uint256"
        }
      ],
      "stateMutability": "view",
      "type": "function",
      "constant": true
    },
    {
      "inputs": [],
      "name": "getAllNFTs",
      "outputs": [
        {
          "components": [
            {
              "internalType": "uint256",
              "name": "tokenId",
              "type": "uint256"
            },
            {
              "internalType": "string",
              "name": "tokenURI",
              "type": "string"
            }
          ],
          "internalType": "struct Kap721.NFT[]",
          "name": "",
          "type": "tuple[]"
        }
      ],
      "stateMutability": "view",
      "type": "function",
      "constant": true
    }
  ],
  "bytecode": "0x60806040523480156200001157600080fd5b5060405180606001604052806022815260200162003080602291396040518060400160405280600381526020017f454d43000000000000000000000000000000000000000000000000000000000081525081600090805190602001906200007a9291906200009c565b508060019080519060200190620000939291906200009c565b505050620001b0565b828054620000aa906200017b565b90600052602060002090601f016020900481019282620000ce57600085556200011a565b82601f10620000e957805160ff19168380011785556200011a565b828001600101855582156200011a579182015b8281111562000119578251825591602001919060010190620000fc565b5b5090506200012991906200012d565b5090565b5b80821115620001485760008160009055506001016200012e565b5090565b7f4e487b7100000000000000000000000000000000000000000000000000000000600052602260045260246000fd5b600060028204905060018216806200019457607f821691505b602082108103620001aa57620001a96200014c565b5b50919050565b612ec080620001c06000396000f3fe608060405234801561001057600080fd5b506004361061010b5760003560e01c80636352211e116100a2578063a22cb46511610071578063a22cb465146102df578063b88d4fde146102fb578063c87b56dd14610317578063e0391b0914610347578063e985e9c5146103655761010b565b80636352211e1461023157806370a0823114610261578063887de93d1461029157806395d89b41146102c15761010b565b806323b872dd116100de57806323b872dd146101aa578063265aa621146101c657806342842e0e146101f757806344b80b92146102135761010b565b806301ffc9a71461011057806306fdde0314610140578063081812fc1461015e578063095ea7b31461018e575b600080fd5b61012a60048036038101906101259190611dc1565b610395565b6040516101379190611e09565b60405180910390f35b610148610477565b6040516101559190611ebd565b60405180910390f35b61017860048036038101906101739190611f15565b610509565b6040516101859190611f83565b60405180910390f35b6101a860048036038101906101a39190611fca565b61054f565b005b6101c460048036038101906101bf919061200a565b610666565b005b6101e060048036038101906101db9190611f15565b6106c6565b6040516101ee92919061206c565b60405180910390f35b610211600480360381019061020c919061200a565b610782565b005b61021b6107a2565b604051610228919061209c565b60405180910390f35b61024b60048036038101906102469190611f15565b6107af565b6040516102589190611f83565b60405180910390f35b61027b600480360381019061027691906120b7565b610835565b604051610288919061209c565b60405180910390f35b6102ab60048036038101906102a69190612219565b6108ec565b6040516102b8919061209c565b60405180910390f35b6102c9610992565b6040516102d69190611ebd565b60405180910390f35b6102f960048036038101906102f491906122a1565b610a24565b005b61031560048036038101906103109190612382565b610a3a565b005b610331600480360381019061032c9190611f15565b610a9c565b60405161033e9190611ebd565b60405180910390f35b61034f610bae565b60405161035c919061255d565b60405180910390f35b61037f600480360381019061037a919061257f565b610ca9565b60405161038c9190611e09565b60405180910390f35b60007f80ac58cd000000000000000000000000000000000000000000000000000000007bffffffffffffffffffffffffffffffffffffffffffffffffffffffff1916827bffffffffffffffffffffffffffffffffffffffffffffffffffffffff1916148061046057507f5b5e139f000000000000000000000000000000000000000000000000000000007bffffffffffffffffffffffffffffffffffffffffffffffffffffffff1916827bffffffffffffffffffffffffffffffffffffffffffffffffffffffff1916145b80610470575061046f82610d3d565b5b9050919050565b606060008054610486906125ee565b80601f01602080910402602001604051908101604052809291908181526020018280546104b2906125ee565b80156104ff5780601f106104d4576101008083540402835291602001916104ff565b820191906000526020600020905b8154815290600101906020018083116104e257829003601f168201915b5050505050905090565b600061051482610da7565b6004600083815260200190815260200160002060009054906101000a900473ffffffffffffffffffffffffffffffffffffffff169050919050565b600061055a826107af565b90508073ffffffffffffffffffffffffffffffffffffffff168373ffffffffffffffffffffffffffffffffffffffff16036105ca576040517f08c379a00000000000000000000000000000000000000000000000000000000081526004016105c190612691565b60405180910390fd5b8073ffffffffffffffffffffffffffffffffffffffff166105e9610df2565b73ffffffffffffffffffffffffffffffffffffffff161480610618575061061781610612610df2565b610ca9565b5b610657576040517f08c379a000000000000000000000000000000000000000000000000000000000815260040161064e90612723565b60405180910390fd5b6106618383610dfa565b505050565b610677610671610df2565b82610eb3565b6106b6576040517f08c379a00000000000000000000000000000000000000000000000000000000081526004016106ad906127b5565b60405180910390fd5b6106c1838383610f48565b505050565b600881815481106106d657600080fd5b90600052602060002090600202016000915090508060000154908060010180546106ff906125ee565b80601f016020809104026020016040519081016040528092919081815260200182805461072b906125ee565b80156107785780601f1061074d57610100808354040283529160200191610778565b820191906000526020600020905b81548152906001019060200180831161075b57829003601f168201915b5050505050905082565b61079d83838360405180602001604052806000815250610a3a565b505050565b6000600880549050905090565b6000806107bb83611241565b9050600073ffffffffffffffffffffffffffffffffffffffff168173ffffffffffffffffffffffffffffffffffffffff160361082c576040517f08c379a000000000000000000000000000000000000000000000000000000000815260040161082390612821565b60405180910390fd5b80915050919050565b60008073ffffffffffffffffffffffffffffffffffffffff168273ffffffffffffffffffffffffffffffffffffffff16036108a5576040517f08c379a000000000000000000000000000000000000000000000000000000000815260040161089c906128b3565b60405180910390fd5b600360008373ffffffffffffffffffffffffffffffffffffffff1673ffffffffffffffffffffffffffffffffffffffff168152602001908152602001600020549050919050565b6000806108f9600761127e565b9050610905848261128c565b61090f81846114a9565b610919600761151d565b600060405180604001604052808381526020018581525090506008819080600181540180825580915050600190039060005260206000209060020201600090919091909150600082015181600001556020820151816001019080519060200190610984929190611cb2565b505050819250505092915050565b6060600180546109a1906125ee565b80601f01602080910402602001604051908101604052809291908181526020018280546109cd906125ee565b8015610a1a5780601f106109ef57610100808354040283529160200191610a1a565b820191906000526020600020905b8154815290600101906020018083116109fd57829003601f168201915b5050505050905090565b610a36610a2f610df2565b8383611533565b5050565b610a4b610a45610df2565b83610eb3565b610a8a576040517f08c379a0000000000000000000000000000000000000000000000000000000008152600401610a81906127b5565b60405180910390fd5b610a968484848461169f565b50505050565b6060610aa782610da7565b6000600660008481526020019081526020016000208054610ac7906125ee565b80601f0160208091040260200160405190810160405280929190818152602001828054610af3906125ee565b8015610b405780601f10610b1557610100808354040283529160200191610b40565b820191906000526020600020905b815481529060010190602001808311610b2357829003601f168201915b505050505090506000610b516116fb565b90506000815103610b66578192505050610ba9565b600082511115610b9b578082604051602001610b8392919061290f565b60405160208183030381529060405292505050610ba9565b610ba484611712565b925050505b919050565b60606008805480602002602001604051908101604052809291908181526020016000905b82821015610ca0578382906000526020600020906002020160405180604001604052908160008201548152602001600182018054610c0f906125ee565b80601f0160208091040260200160405190810160405280929190818152602001828054610c3b906125ee565b8015610c885780601f10610c5d57610100808354040283529160200191610c88565b820191906000526020600020905b815481529060010190602001808311610c6b57829003601f168201915b50505050508152505081526020019060010190610bd2565b50505050905090565b6000600560008473ffffffffffffffffffffffffffffffffffffffff1673ffffffffffffffffffffffffffffffffffffffff16815260200190815260200160002060008373ffffffffffffffffffffffffffffffffffffffff1673ffffffffffffffffffffffffffffffffffffffff16815260200190815260200160002060009054906101000a900460ff16905092915050565b60007f01ffc9a7000000000000000000000000000000000000000000000000000000007bffffffffffffffffffffffffffffffffffffffffffffffffffffffff1916827bffffffffffffffffffffffffffffffffffffffffffffffffffffffff1916149050919050565b610db08161177a565b610def576040517f08c379a0000000000000000000000000000000000000000000000000000000008152600401610de690612821565b60405180910390fd5b50565b600033905090565b816004600083815260200190815260200160002060006101000a81548173ffffffffffffffffffffffffffffffffffffffff021916908373ffffffffffffffffffffffffffffffffffffffff160217905550808273ffffffffffffffffffffffffffffffffffffffff16610e6d836107af565b73ffffffffffffffffffffffffffffffffffffffff167f8c5be1e5ebec7d5bd14f71427d1e84f3dd0314c0f7b2291e5b200ac8c7c3b92560405160405180910390a45050565b600080610ebf836107af565b90508073ffffffffffffffffffffffffffffffffffffffff168473ffffffffffffffffffffffffffffffffffffffff161480610f015750610f008185610ca9565b5b80610f3f57508373ffffffffffffffffffffffffffffffffffffffff16610f2784610509565b73ffffffffffffffffffffffffffffffffffffffff16145b91505092915050565b8273ffffffffffffffffffffffffffffffffffffffff16610f68826107af565b73ffffffffffffffffffffffffffffffffffffffff1614610fbe576040517f08c379a0000000000000000000000000000000000000000000000000000000008152600401610fb5906129a5565b60405180910390fd5b600073ffffffffffffffffffffffffffffffffffffffff168273ffffffffffffffffffffffffffffffffffffffff160361102d576040517f08c379a000000000000000000000000000000000000000000000000000000000815260040161102490612a37565b60405180910390fd5b61103a83838360016117bb565b8273ffffffffffffffffffffffffffffffffffffffff1661105a826107af565b73ffffffffffffffffffffffffffffffffffffffff16146110b0576040517f08c379a00000000000000000000000000000000000000000000000000000000081526004016110a7906129a5565b60405180910390fd5b6004600082815260200190815260200160002060006101000a81549073ffffffffffffffffffffffffffffffffffffffff02191690556001600360008573ffffffffffffffffffffffffffffffffffffffff1673ffffffffffffffffffffffffffffffffffffffff168152602001908152602001600020600082825403925050819055506001600360008473ffffffffffffffffffffffffffffffffffffffff1673ffffffffffffffffffffffffffffffffffffffff16815260200190815260200160002060008282540192505081905550816002600083815260200190815260200160002060006101000a81548173ffffffffffffffffffffffffffffffffffffffff021916908373ffffffffffffffffffffffffffffffffffffffff160217905550808273ffffffffffffffffffffffffffffffffffffffff168473ffffffffffffffffffffffffffffffffffffffff167fddf252ad1be2c89b69c2b068fc378daa952ba7f163c4a11628f55a4df523b3ef60405160405180910390a461123c83838360016118e1565b505050565b60006002600083815260200190815260200160002060009054906101000a900473ffffffffffffffffffffffffffffffffffffffff169050919050565b600081600001549050919050565b600073ffffffffffffffffffffffffffffffffffffffff168273ffffffffffffffffffffffffffffffffffffffff16036112fb576040517f08c379a00000000000000000000000000000000000000000000000000000000081526004016112f290612aa3565b60405180910390fd5b6113048161177a565b15611344576040517f08c379a000000000000000000000000000000000000000000000000000000000815260040161133b90612b0f565b60405180910390fd5b6113526000838360016117bb565b61135b8161177a565b1561139b576040517f08c379a000000000000000000000000000000000000000000000000000000000815260040161139290612b0f565b60405180910390fd5b6001600360008473ffffffffffffffffffffffffffffffffffffffff1673ffffffffffffffffffffffffffffffffffffffff16815260200190815260200160002060008282540192505081905550816002600083815260200190815260200160002060006101000a81548173ffffffffffffffffffffffffffffffffffffffff021916908373ffffffffffffffffffffffffffffffffffffffff160217905550808273ffffffffffffffffffffffffffffffffffffffff16600073ffffffffffffffffffffffffffffffffffffffff167fddf252ad1be2c89b69c2b068fc378daa952ba7f163c4a11628f55a4df523b3ef60405160405180910390a46114a56000838360016118e1565b5050565b6114b28261177a565b6114f1576040517f08c379a00000000000000000000000000000000000000000000000000000000081526004016114e890612ba1565b60405180910390fd5b80600660008481526020019081526020016000209080519060200190611518929190611cb2565b505050565b6001816000016000828254019250508190555050565b8173ffffffffffffffffffffffffffffffffffffffff168373ffffffffffffffffffffffffffffffffffffffff16036115a1576040517f08c379a000000000000000000000000000000000000000000000000000000000815260040161159890612c0d565b60405180910390fd5b80600560008573ffffffffffffffffffffffffffffffffffffffff1673ffffffffffffffffffffffffffffffffffffffff16815260200190815260200160002060008473ffffffffffffffffffffffffffffffffffffffff1673ffffffffffffffffffffffffffffffffffffffff16815260200190815260200160002060006101000a81548160ff0219169083151502179055508173ffffffffffffffffffffffffffffffffffffffff168373ffffffffffffffffffffffffffffffffffffffff167f17307eab39ab6107e8899845ad3d59bd9653f200f220920489ca2b5937696c31836040516116929190611e09565b60405180910390a3505050565b6116aa848484610f48565b6116b6848484846118e7565b6116f5576040517f08c379a00000000000000000000000000000000000000000000000000000000081526004016116ec90612c9f565b60405180910390fd5b50505050565b606060405180602001604052806000815250905090565b606061171d82610da7565b60006117276116fb565b905060008151116117475760405180602001604052806000815250611772565b8061175184611a6e565b60405160200161176292919061290f565b6040516020818303038152906040525b915050919050565b60008073ffffffffffffffffffffffffffffffffffffffff1661179c83611241565b73ffffffffffffffffffffffffffffffffffffffff1614159050919050565b60018111156118db57600073ffffffffffffffffffffffffffffffffffffffff168473ffffffffffffffffffffffffffffffffffffffff161461184f5780600360008673ffffffffffffffffffffffffffffffffffffffff1673ffffffffffffffffffffffffffffffffffffffff16815260200190815260200160002060008282546118479190612cee565b925050819055505b600073ffffffffffffffffffffffffffffffffffffffff168373ffffffffffffffffffffffffffffffffffffffff16146118da5780600360008573ffffffffffffffffffffffffffffffffffffffff1673ffffffffffffffffffffffffffffffffffffffff16815260200190815260200160002060008282546118d29190612d22565b925050819055505b5b50505050565b50505050565b60006119088473ffffffffffffffffffffffffffffffffffffffff16611b3c565b15611a61578373ffffffffffffffffffffffffffffffffffffffff1663150b7a02611931610df2565b8786866040518563ffffffff1660e01b81526004016119539493929190612dcd565b6020604051808303816000875af192505050801561198f57506040513d601f19601f8201168201806040525081019061198c9190612e2e565b60015b611a11573d80600081146119bf576040519150601f19603f3d011682016040523d82523d6000602084013e6119c4565b606091505b506000815103611a09576040517f08c379a0000000000000000000000000000000000000000000000000000000008152600401611a0090612c9f565b60405180910390fd5b805181602001fd5b63150b7a0260e01b7bffffffffffffffffffffffffffffffffffffffffffffffffffffffff1916817bffffffffffffffffffffffffffffffffffffffffffffffffffffffff191614915050611a66565b600190505b949350505050565b606060006001611a7d84611b5f565b01905060008167ffffffffffffffff811115611a9c57611a9b6120ee565b5b6040519080825280601f01601f191660200182016040528015611ace5781602001600182028036833780820191505090505b509050600082602001820190505b600115611b31578080600190039150507f3031323334353637383961626364656600000000000000000000000000000000600a86061a8153600a8581611b2557611b24612e5b565b5b04945060008503611adc575b819350505050919050565b6000808273ffffffffffffffffffffffffffffffffffffffff163b119050919050565b600080600090507a184f03e93ff9f4daa797ed6e38ed64bf6a1f0100000000000000008310611bbd577a184f03e93ff9f4daa797ed6e38ed64bf6a1f0100000000000000008381611bb357611bb2612e5b565b5b0492506040810190505b6d04ee2d6d415b85acef81000000008310611bfa576d04ee2d6d415b85acef81000000008381611bf057611bef612e5b565b5b0492506020810190505b662386f26fc100008310611c2957662386f26fc100008381611c1f57611c1e612e5b565b5b0492506010810190505b6305f5e1008310611c52576305f5e1008381611c4857611c47612e5b565b5b0492506008810190505b6127108310611c77576127108381611c6d57611c6c612e5b565b5b0492506004810190505b60648310611c9a5760648381611c9057611c8f612e5b565b5b0492506002810190505b600a8310611ca9576001810190505b80915050919050565b828054611cbe906125ee565b90600052602060002090601f016020900481019282611ce05760008555611d27565b82601f10611cf957805160ff1916838001178555611d27565b82800160010185558215611d27579182015b82811115611d26578251825591602001919060010190611d0b565b5b509050611d349190611d38565b5090565b5b80821115611d51576000816000905550600101611d39565b5090565b6000604051905090565b600080fd5b600080fd5b60007fffffffff0000000000000000000000000000000000000000000000000000000082169050919050565b611d9e81611d69565b8114611da957600080fd5b50565b600081359050611dbb81611d95565b92915050565b600060208284031215611dd757611dd6611d5f565b5b6000611de584828501611dac565b91505092915050565b60008115159050919050565b611e0381611dee565b82525050565b6000602082019050611e1e6000830184611dfa565b92915050565b600081519050919050565b600082825260208201905092915050565b60005b83811015611e5e578082015181840152602081019050611e43565b83811115611e6d576000848401525b50505050565b6000601f19601f8301169050919050565b6000611e8f82611e24565b611e998185611e2f565b9350611ea9818560208601611e40565b611eb281611e73565b840191505092915050565b60006020820190508181036000830152611ed78184611e84565b905092915050565b6000819050919050565b611ef281611edf565b8114611efd57600080fd5b50565b600081359050611f0f81611ee9565b92915050565b600060208284031215611f2b57611f2a611d5f565b5b6000611f3984828501611f00565b91505092915050565b600073ffffffffffffffffffffffffffffffffffffffff82169050919050565b6000611f6d82611f42565b9050919050565b611f7d81611f62565b82525050565b6000602082019050611f986000830184611f74565b92915050565b611fa781611f62565b8114611fb257600080fd5b50565b600081359050611fc481611f9e565b92915050565b60008060408385031215611fe157611fe0611d5f565b5b6000611fef85828601611fb5565b925050602061200085828601611f00565b9150509250929050565b60008060006060848603121561202357612022611d5f565b5b600061203186828701611fb5565b935050602061204286828701611fb5565b925050604061205386828701611f00565b9150509250925092565b61206681611edf565b82525050565b6000604082019050612081600083018561205d565b81810360208301526120938184611e84565b90509392505050565b60006020820190506120b1600083018461205d565b92915050565b6000602082840312156120cd576120cc611d5f565b5b60006120db84828501611fb5565b91505092915050565b600080fd5b600080fd5b7f4e487b7100000000000000000000000000000000000000000000000000000000600052604160045260246000fd5b61212682611e73565b810181811067ffffffffffffffff82111715612145576121446120ee565b5b80604052505050565b6000612158611d55565b9050612164828261211d565b919050565b600067ffffffffffffffff821115612184576121836120ee565b5b61218d82611e73565b9050602081019050919050565b82818337600083830152505050565b60006121bc6121b784612169565b61214e565b9050828152602081018484840111156121d8576121d76120e9565b5b6121e384828561219a565b509392505050565b600082601f830112612200576121ff6120e4565b5b81356122108482602086016121a9565b91505092915050565b600080604083850312156122305761222f611d5f565b5b600061223e85828601611fb5565b925050602083013567ffffffffffffffff81111561225f5761225e611d64565b5b61226b858286016121eb565b9150509250929050565b61227e81611dee565b811461228957600080fd5b50565b60008135905061229b81612275565b92915050565b600080604083850312156122b8576122b7611d5f565b5b60006122c685828601611fb5565b92505060206122d78582860161228c565b9150509250929050565b600067ffffffffffffffff8211156122fc576122fb6120ee565b5b61230582611e73565b9050602081019050919050565b6000612325612320846122e1565b61214e565b905082815260208101848484011115612341576123406120e9565b5b61234c84828561219a565b509392505050565b600082601f830112612369576123686120e4565b5b8135612379848260208601612312565b91505092915050565b6000806000806080858703121561239c5761239b611d5f565b5b60006123aa87828801611fb5565b94505060206123bb87828801611fb5565b93505060406123cc87828801611f00565b925050606085013567ffffffffffffffff8111156123ed576123ec611d64565b5b6123f987828801612354565b91505092959194509250565b600081519050919050565b600082825260208201905092915050565b6000819050602082019050919050565b61243a81611edf565b82525050565b600082825260208201905092915050565b600061245c82611e24565b6124668185612440565b9350612476818560208601611e40565b61247f81611e73565b840191505092915050565b60006040830160008301516124a26000860182612431565b50602083015184820360208601526124ba8282612451565b9150508091505092915050565b60006124d3838361248a565b905092915050565b6000602082019050919050565b60006124f382612405565b6124fd8185612410565b93508360208202850161250f85612421565b8060005b8581101561254b578484038952815161252c85826124c7565b9450612537836124db565b925060208a01995050600181019050612513565b50829750879550505050505092915050565b6000602082019050818103600083015261257781846124e8565b905092915050565b6000806040838503121561259657612595611d5f565b5b60006125a485828601611fb5565b92505060206125b585828601611fb5565b9150509250929050565b7f4e487b7100000000000000000000000000000000000000000000000000000000600052602260045260246000fd5b6000600282049050600182168061260657607f821691505b602082108103612619576126186125bf565b5b50919050565b7f4552433732313a20617070726f76616c20746f2063757272656e74206f776e6560008201527f7200000000000000000000000000000000000000000000000000000000000000602082015250565b600061267b602183611e2f565b91506126868261261f565b604082019050919050565b600060208201905081810360008301526126aa8161266e565b9050919050565b7f4552433732313a20617070726f76652063616c6c6572206973206e6f7420746f60008201527f6b656e206f776e6572206f7220617070726f76656420666f7220616c6c000000602082015250565b600061270d603d83611e2f565b9150612718826126b1565b604082019050919050565b6000602082019050818103600083015261273c81612700565b9050919050565b7f4552433732313a2063616c6c6572206973206e6f7420746f6b656e206f776e6560008201527f72206f7220617070726f76656400000000000000000000000000000000000000602082015250565b600061279f602d83611e2f565b91506127aa82612743565b604082019050919050565b600060208201905081810360008301526127ce81612792565b9050919050565b7f4552433732313a20696e76616c696420746f6b656e2049440000000000000000600082015250565b600061280b601883611e2f565b9150612816826127d5565b602082019050919050565b6000602082019050818103600083015261283a816127fe565b9050919050565b7f4552433732313a2061646472657373207a65726f206973206e6f74206120766160008201527f6c6964206f776e65720000000000000000000000000000000000000000000000602082015250565b600061289d602983611e2f565b91506128a882612841565b604082019050919050565b600060208201905081810360008301526128cc81612890565b9050919050565b600081905092915050565b60006128e982611e24565b6128f381856128d3565b9350612903818560208601611e40565b80840191505092915050565b600061291b82856128de565b915061292782846128de565b91508190509392505050565b7f4552433732313a207472616e736665722066726f6d20696e636f72726563742060008201527f6f776e6572000000000000000000000000000000000000000000000000000000602082015250565b600061298f602583611e2f565b915061299a82612933565b604082019050919050565b600060208201905081810360008301526129be81612982565b9050919050565b7f4552433732313a207472616e7366657220746f20746865207a65726f2061646460008201527f7265737300000000000000000000000000000000000000000000000000000000602082015250565b6000612a21602483611e2f565b9150612a2c826129c5565b604082019050919050565b60006020820190508181036000830152612a5081612a14565b9050919050565b7f4552433732313a206d696e7420746f20746865207a65726f2061646472657373600082015250565b6000612a8d602083611e2f565b9150612a9882612a57565b602082019050919050565b60006020820190508181036000830152612abc81612a80565b9050919050565b7f4552433732313a20746f6b656e20616c7265616479206d696e74656400000000600082015250565b6000612af9601c83611e2f565b9150612b0482612ac3565b602082019050919050565b60006020820190508181036000830152612b2881612aec565b9050919050565b7f45524337323155524953746f726167653a2055524920736574206f66206e6f6e60008201527f6578697374656e7420746f6b656e000000000000000000000000000000000000602082015250565b6000612b8b602e83611e2f565b9150612b9682612b2f565b604082019050919050565b60006020820190508181036000830152612bba81612b7e565b9050919050565b7f4552433732313a20617070726f766520746f2063616c6c657200000000000000600082015250565b6000612bf7601983611e2f565b9150612c0282612bc1565b602082019050919050565b60006020820190508181036000830152612c2681612bea565b9050919050565b7f4552433732313a207472616e7366657220746f206e6f6e20455243373231526560008201527f63656976657220696d706c656d656e7465720000000000000000000000000000602082015250565b6000612c89603283611e2f565b9150612c9482612c2d565b604082019050919050565b60006020820190508181036000830152612cb881612c7c565b9050919050565b7f4e487b7100000000000000000000000000000000000000000000000000000000600052601160045260246000fd5b6000612cf982611edf565b9150612d0483611edf565b925082821015612d1757612d16612cbf565b5b828203905092915050565b6000612d2d82611edf565b9150612d3883611edf565b9250827fffffffffffffffffffffffffffffffffffffffffffffffffffffffffffffffff03821115612d6d57612d6c612cbf565b5b828201905092915050565b600081519050919050565b600082825260208201905092915050565b6000612d9f82612d78565b612da98185612d83565b9350612db9818560208601611e40565b612dc281611e73565b840191505092915050565b6000608082019050612de26000830187611f74565b612def6020830186611f74565b612dfc604083018561205d565b8181036060830152612e0e8184612d94565b905095945050505050565b600081519050612e2881611d95565b92915050565b600060208284031215612e4457612e43611d5f565b5b6000612e5284828501612e19565b91505092915050565b7f4e487b7100000000000000000000000000000000000000000000000000000000600052601260045260246000fdfea2646970667358221220b01e4a0aac09e2cdde275cefe8fbd89452794739330b465c0088fc9fdbd0d72664736f6c634300080e0033456c656374726f6e6963616c6c79204d616e61676520436572746966696361746573",
  "immutableReferences": {},
  "source": "// SPDX-License-Identifier: GPL-3.0\r\n\r\npragma solidity >=0.7.0 <0.9.0;\r\n\r\nimport \"../node_modules/@openzeppelin/contracts/token/ERC721/extensions/ERC721URIStorage.sol\";\r\nimport \"../node_modules/@openzeppelin/contracts/utils/Counters.sol\";\r\n\r\ncontract Kap721 is ERC721URIStorage {\r\n    using Counters for Counters.Counter;\r\n    Counters.Counter private _tokenIds;\r\n\r\n    struct NFT {\r\n        uint256 tokenId;\r\n        string tokenURI;\r\n    }\r\n\r\n    NFT[] public nfts;\r\n\r\n    constructor() ERC721(\"Electronically Manage Certificates\", \"EMC\") {}\r\n\r\n    function NFTEservice(\r\n        address player,\r\n        string memory tokenURI\r\n    ) public returns (uint256) {\r\n        uint256 newItemId = _tokenIds.current();\r\n        _mint(player, newItemId);\r\n        _setTokenURI(newItemId, tokenURI);\r\n\r\n        _tokenIds.increment();\r\n\r\n        NFT memory newNFT = NFT(newItemId, tokenURI);\r\n        nfts.push(newNFT);\r\n\r\n        return newItemId;\r\n    }\r\n\r\n    function countNFTs() public view returns (uint256) {\r\n        return nfts.length;\r\n    }\r\n\r\n    function getAllNFTs() public view returns (NFT[] memory) {\r\n        return nfts;\r\n    }\r\n}\r\n",
  "sourcePath": "D:\\Lab-project\\Kubcoin\\contracts\\Kap721.sol",
  "compiler": {
    "name": "solc",
    "version": "0.8.14+commit.80d49f37.Emscripten.clang"
  },
  "schemaVersion": "3.4.11",
  "updatedAt": "2023-06-28T10:15:14.643Z",
  "networkType": "ethereum",
  "devdoc": {
    "kind": "dev",
    "methods": {
      "approve(address,uint256)": {
        "details": "See {IERC721-approve}."
      },
      "balanceOf(address)": {
        "details": "See {IERC721-balanceOf}."
      },
      "getApproved(uint256)": {
        "details": "See {IERC721-getApproved}."
      },
      "isApprovedForAll(address,address)": {
        "details": "See {IERC721-isApprovedForAll}."
      },
      "name()": {
        "details": "See {IERC721Metadata-name}."
      },
      "ownerOf(uint256)": {
        "details": "See {IERC721-ownerOf}."
      },
      "safeTransferFrom(address,address,uint256)": {
        "details": "See {IERC721-safeTransferFrom}."
      },
      "safeTransferFrom(address,address,uint256,bytes)": {
        "details": "See {IERC721-safeTransferFrom}."
      },
      "setApprovalForAll(address,bool)": {
        "details": "See {IERC721-setApprovalForAll}."
      },
      "supportsInterface(bytes4)": {
        "details": "See {IERC165-supportsInterface}."
      },
      "symbol()": {
        "details": "See {IERC721Metadata-symbol}."
      },
      "tokenURI(uint256)": {
        "details": "See {IERC721Metadata-tokenURI}."
      },
      "transferFrom(address,address,uint256)": {
        "details": "See {IERC721-transferFrom}."
      }
    },
    "version": 1
  },
  "userdoc": {
    "kind": "user",
    "methods": {},
    "version": 1
  }
}