{
  "contractName": "Kap721",
  "abi": [
    {
      "inputs": [],
      "stateMutability": "nonpayable",
      "type": "constructor"
    },
    {
      "anonymous": false,
      "inputs": [
        {
          "indexed": true,
          "internalType": "address",
          "name": "owner",
          "type": "address"
        },
        {
          "indexed": true,
          "internalType": "address",
          "name": "approved",
          "type": "address"
        },
        {
          "indexed": true,
          "internalType": "uint256",
          "name": "tokenId",
          "type": "uint256"
        }
      ],
      "name": "Approval",
      "type": "event"
    },
    {
      "anonymous": false,
      "inputs": [
        {
          "indexed": true,
          "internalType": "address",
          "name": "owner",
          "type": "address"
        },
        {
          "indexed": true,
          "internalType": "address",
          "name": "operator",
          "type": "address"
        },
        {
          "indexed": false,
          "internalType": "bool",
          "name": "approved",
          "type": "bool"
        }
      ],
      "name": "ApprovalForAll",
      "type": "event"
    },
    {
      "anonymous": false,
      "inputs": [
        {
          "indexed": true,
          "internalType": "address",
          "name": "from",
          "type": "address"
        },
        {
          "indexed": true,
          "internalType": "address",
          "name": "to",
          "type": "address"
        },
        {
          "indexed": true,
          "internalType": "uint256",
          "name": "tokenId",
          "type": "uint256"
        }
      ],
      "name": "Transfer",
      "type": "event"
    },
    {
      "inputs": [
        {
          "internalType": "address",
          "name": "to",
          "type": "address"
        },
        {
          "internalType": "uint256",
          "name": "tokenId",
          "type": "uint256"
        }
      ],
      "name": "approve",
      "outputs": [],
      "stateMutability": "nonpayable",
      "type": "function"
    },
    {
      "inputs": [
        {
          "internalType": "address",
          "name": "owner",
          "type": "address"
        }
      ],
      "name": "balanceOf",
      "outputs": [
        {
          "internalType": "uint256",
          "name": "",
          "type": "uint256"
        }
      ],
      "stateMutability": "view",
      "type": "function",
      "constant": true
    },
    {
      "inputs": [
        {
          "internalType": "uint256",
          "name": "tokenId",
          "type": "uint256"
        }
      ],
      "name": "getApproved",
      "outputs": [
        {
          "internalType": "address",
          "name": "",
          "type": "address"
        }
      ],
      "stateMutability": "view",
      "type": "function",
      "constant": true
    },
    {
      "inputs": [
        {
          "internalType": "address",
          "name": "owner",
          "type": "address"
        },
        {
          "internalType": "address",
          "name": "operator",
          "type": "address"
        }
      ],
      "name": "isApprovedForAll",
      "outputs": [
        {
          "internalType": "bool",
          "name": "",
          "type": "bool"
        }
      ],
      "stateMutability": "view",
      "type": "function",
      "constant": true
    },
    {
      "inputs": [],
      "name": "name",
      "outputs": [
        {
          "internalType": "string",
          "name": "",
          "type": "string"
        }
      ],
      "stateMutability": "view",
      "type": "function",
      "constant": true
    },
    {
      "inputs": [
        {
          "internalType": "uint256",
          "name": "tokenId",
          "type": "uint256"
        }
      ],
      "name": "ownerOf",
      "outputs": [
        {
          "internalType": "address",
          "name": "",
          "type": "address"
        }
      ],
      "stateMutability": "view",
      "type": "function",
      "constant": true
    },
    {
      "inputs": [
        {
          "internalType": "address",
          "name": "from",
          "type": "address"
        },
        {
          "internalType": "address",
          "name": "to",
          "type": "address"
        },
        {
          "internalType": "uint256",
          "name": "tokenId",
          "type": "uint256"
        }
      ],
      "name": "safeTransferFrom",
      "outputs": [],
      "stateMutability": "nonpayable",
      "type": "function"
    },
    {
      "inputs": [
        {
          "internalType": "address",
          "name": "from",
          "type": "address"
        },
        {
          "internalType": "address",
          "name": "to",
          "type": "address"
        },
        {
          "internalType": "uint256",
          "name": "tokenId",
          "type": "uint256"
        },
        {
          "internalType": "bytes",
          "name": "data",
          "type": "bytes"
        }
      ],
      "name": "safeTransferFrom",
      "outputs": [],
      "stateMutability": "nonpayable",
      "type": "function"
    },
    {
      "inputs": [
        {
          "internalType": "address",
          "name": "operator",
          "type": "address"
        },
        {
          "internalType": "bool",
          "name": "approved",
          "type": "bool"
        }
      ],
      "name": "setApprovalForAll",
      "outputs": [],
      "stateMutability": "nonpayable",
      "type": "function"
    },
    {
      "inputs": [
        {
          "internalType": "bytes4",
          "name": "interfaceId",
          "type": "bytes4"
        }
      ],
      "name": "supportsInterface",
      "outputs": [
        {
          "internalType": "bool",
          "name": "",
          "type": "bool"
        }
      ],
      "stateMutability": "view",
      "type": "function",
      "constant": true
    },
    {
      "inputs": [],
      "name": "symbol",
      "outputs": [
        {
          "internalType": "string",
          "name": "",
          "type": "string"
        }
      ],
      "stateMutability": "view",
      "type": "function",
      "constant": true
    },
    {
      "inputs": [
        {
          "internalType": "uint256",
          "name": "tokenId",
          "type": "uint256"
        }
      ],
      "name": "tokenURI",
      "outputs": [
        {
          "internalType": "string",
          "name": "",
          "type": "string"
        }
      ],
      "stateMutability": "view",
      "type": "function",
      "constant": true
    },
    {
      "inputs": [
        {
          "internalType": "address",
          "name": "from",
          "type": "address"
        },
        {
          "internalType": "address",
          "name": "to",
          "type": "address"
        },
        {
          "internalType": "uint256",
          "name": "tokenId",
          "type": "uint256"
        }
      ],
      "name": "transferFrom",
      "outputs": [],
      "stateMutability": "nonpayable",
      "type": "function"
    },
    {
      "inputs": [
        {
          "internalType": "address",
          "name": "player",
          "type": "address"
        },
        {
          "internalType": "string",
          "name": "tokenURI",
          "type": "string"
        }
      ],
      "name": "awardItem",
      "outputs": [
        {
          "internalType": "uint256",
          "name": "",
          "type": "uint256"
        }
      ],
      "stateMutability": "nonpayable",
      "type": "function"
    }
  ],
  "bytecode": "0x60806040523480156200001157600080fd5b5060405180606001604052806022815260200162002c15602291396040518060400160405280600381526020017f454d43000000000000000000000000000000000000000000000000000000000081525081600090805190602001906200007a9291906200009c565b508060019080519060200190620000939291906200009c565b505050620001b0565b828054620000aa906200017b565b90600052602060002090601f016020900481019282620000ce57600085556200011a565b82601f10620000e957805160ff19168380011785556200011a565b828001600101855582156200011a579182015b8281111562000119578251825591602001919060010190620000fc565b5b5090506200012991906200012d565b5090565b5b80821115620001485760008160009055506001016200012e565b5090565b7f4e487b7100000000000000000000000000000000000000000000000000000000600052602260045260246000fd5b600060028204905060018216806200019457607f821691505b602082108103620001aa57620001a96200014c565b5b50919050565b612a5580620001c06000396000f3fe608060405234801561001057600080fd5b50600436106100ea5760003560e01c806370a082311161008c578063b88d4fde11610066578063b88d4fde1461025b578063c87b56dd14610277578063cf378343146102a7578063e985e9c5146102d7576100ea565b806370a08231146101f157806395d89b4114610221578063a22cb4651461023f576100ea565b8063095ea7b3116100c8578063095ea7b31461016d57806323b872dd1461018957806342842e0e146101a55780636352211e146101c1576100ea565b806301ffc9a7146100ef57806306fdde031461011f578063081812fc1461013d575b600080fd5b61010960048036038101906101049190611b00565b610307565b6040516101169190611b48565b60405180910390f35b6101276103e9565b6040516101349190611bfc565b60405180910390f35b61015760048036038101906101529190611c54565b61047b565b6040516101649190611cc2565b60405180910390f35b61018760048036038101906101829190611d09565b6104c1565b005b6101a3600480360381019061019e9190611d49565b6105d8565b005b6101bf60048036038101906101ba9190611d49565b610638565b005b6101db60048036038101906101d69190611c54565b610658565b6040516101e89190611cc2565b60405180910390f35b61020b60048036038101906102069190611d9c565b6106de565b6040516102189190611dd8565b60405180910390f35b610229610795565b6040516102369190611bfc565b60405180910390f35b61025960048036038101906102549190611e1f565b610827565b005b61027560048036038101906102709190611f94565b61083d565b005b610291600480360381019061028c9190611c54565b61089f565b60405161029e9190611bfc565b60405180910390f35b6102c160048036038101906102bc91906120b8565b6109b1565b6040516102ce9190611dd8565b60405180910390f35b6102f160048036038101906102ec9190612114565b6109e8565b6040516102fe9190611b48565b60405180910390f35b60007f80ac58cd000000000000000000000000000000000000000000000000000000007bffffffffffffffffffffffffffffffffffffffffffffffffffffffff1916827bffffffffffffffffffffffffffffffffffffffffffffffffffffffff191614806103d257507f5b5e139f000000000000000000000000000000000000000000000000000000007bffffffffffffffffffffffffffffffffffffffffffffffffffffffff1916827bffffffffffffffffffffffffffffffffffffffffffffffffffffffff1916145b806103e257506103e182610a7c565b5b9050919050565b6060600080546103f890612183565b80601f016020809104026020016040519081016040528092919081815260200182805461042490612183565b80156104715780601f1061044657610100808354040283529160200191610471565b820191906000526020600020905b81548152906001019060200180831161045457829003601f168201915b5050505050905090565b600061048682610ae6565b6004600083815260200190815260200160002060009054906101000a900473ffffffffffffffffffffffffffffffffffffffff169050919050565b60006104cc82610658565b90508073ffffffffffffffffffffffffffffffffffffffff168373ffffffffffffffffffffffffffffffffffffffff160361053c576040517f08c379a000000000000000000000000000000000000000000000000000000000815260040161053390612226565b60405180910390fd5b8073ffffffffffffffffffffffffffffffffffffffff1661055b610b31565b73ffffffffffffffffffffffffffffffffffffffff16148061058a575061058981610584610b31565b6109e8565b5b6105c9576040517f08c379a00000000000000000000000000000000000000000000000000000000081526004016105c0906122b8565b60405180910390fd5b6105d38383610b39565b505050565b6105e96105e3610b31565b82610bf2565b610628576040517f08c379a000000000000000000000000000000000000000000000000000000000815260040161061f9061234a565b60405180910390fd5b610633838383610c87565b505050565b6106538383836040518060200160405280600081525061083d565b505050565b60008061066483610f80565b9050600073ffffffffffffffffffffffffffffffffffffffff168173ffffffffffffffffffffffffffffffffffffffff16036106d5576040517f08c379a00000000000000000000000000000000000000000000000000000000081526004016106cc906123b6565b60405180910390fd5b80915050919050565b60008073ffffffffffffffffffffffffffffffffffffffff168273ffffffffffffffffffffffffffffffffffffffff160361074e576040517f08c379a000000000000000000000000000000000000000000000000000000000815260040161074590612448565b60405180910390fd5b600360008373ffffffffffffffffffffffffffffffffffffffff1673ffffffffffffffffffffffffffffffffffffffff168152602001908152602001600020549050919050565b6060600180546107a490612183565b80601f01602080910402602001604051908101604052809291908181526020018280546107d090612183565b801561081d5780601f106107f25761010080835404028352916020019161081d565b820191906000526020600020905b81548152906001019060200180831161080057829003601f168201915b5050505050905090565b610839610832610b31565b8383610fbd565b5050565b61084e610848610b31565b83610bf2565b61088d576040517f08c379a00000000000000000000000000000000000000000000000000000000081526004016108849061234a565b60405180910390fd5b61089984848484611129565b50505050565b60606108aa82610ae6565b60006006600084815260200190815260200160002080546108ca90612183565b80601f01602080910402602001604051908101604052809291908181526020018280546108f690612183565b80156109435780601f1061091857610100808354040283529160200191610943565b820191906000526020600020905b81548152906001019060200180831161092657829003601f168201915b505050505090506000610954611185565b905060008151036109695781925050506109ac565b60008251111561099e5780826040516020016109869291906124a4565b604051602081830303815290604052925050506109ac565b6109a78461119c565b925050505b919050565b6000806109be6007611204565b90506109ca8482611212565b6109d4818461142f565b6109de60076114a3565b8091505092915050565b6000600560008473ffffffffffffffffffffffffffffffffffffffff1673ffffffffffffffffffffffffffffffffffffffff16815260200190815260200160002060008373ffffffffffffffffffffffffffffffffffffffff1673ffffffffffffffffffffffffffffffffffffffff16815260200190815260200160002060009054906101000a900460ff16905092915050565b60007f01ffc9a7000000000000000000000000000000000000000000000000000000007bffffffffffffffffffffffffffffffffffffffffffffffffffffffff1916827bffffffffffffffffffffffffffffffffffffffffffffffffffffffff1916149050919050565b610aef816114b9565b610b2e576040517f08c379a0000000000000000000000000000000000000000000000000000000008152600401610b25906123b6565b60405180910390fd5b50565b600033905090565b816004600083815260200190815260200160002060006101000a81548173ffffffffffffffffffffffffffffffffffffffff021916908373ffffffffffffffffffffffffffffffffffffffff160217905550808273ffffffffffffffffffffffffffffffffffffffff16610bac83610658565b73ffffffffffffffffffffffffffffffffffffffff167f8c5be1e5ebec7d5bd14f71427d1e84f3dd0314c0f7b2291e5b200ac8c7c3b92560405160405180910390a45050565b600080610bfe83610658565b90508073ffffffffffffffffffffffffffffffffffffffff168473ffffffffffffffffffffffffffffffffffffffff161480610c405750610c3f81856109e8565b5b80610c7e57508373ffffffffffffffffffffffffffffffffffffffff16610c668461047b565b73ffffffffffffffffffffffffffffffffffffffff16145b91505092915050565b8273ffffffffffffffffffffffffffffffffffffffff16610ca782610658565b73ffffffffffffffffffffffffffffffffffffffff1614610cfd576040517f08c379a0000000000000000000000000000000000000000000000000000000008152600401610cf49061253a565b60405180910390fd5b600073ffffffffffffffffffffffffffffffffffffffff168273ffffffffffffffffffffffffffffffffffffffff1603610d6c576040517f08c379a0000000000000000000000000000000000000000000000000000000008152600401610d63906125cc565b60405180910390fd5b610d7983838360016114fa565b8273ffffffffffffffffffffffffffffffffffffffff16610d9982610658565b73ffffffffffffffffffffffffffffffffffffffff1614610def576040517f08c379a0000000000000000000000000000000000000000000000000000000008152600401610de69061253a565b60405180910390fd5b6004600082815260200190815260200160002060006101000a81549073ffffffffffffffffffffffffffffffffffffffff02191690556001600360008573ffffffffffffffffffffffffffffffffffffffff1673ffffffffffffffffffffffffffffffffffffffff168152602001908152602001600020600082825403925050819055506001600360008473ffffffffffffffffffffffffffffffffffffffff1673ffffffffffffffffffffffffffffffffffffffff16815260200190815260200160002060008282540192505081905550816002600083815260200190815260200160002060006101000a81548173ffffffffffffffffffffffffffffffffffffffff021916908373ffffffffffffffffffffffffffffffffffffffff160217905550808273ffffffffffffffffffffffffffffffffffffffff168473ffffffffffffffffffffffffffffffffffffffff167fddf252ad1be2c89b69c2b068fc378daa952ba7f163c4a11628f55a4df523b3ef60405160405180910390a4610f7b8383836001611620565b505050565b60006002600083815260200190815260200160002060009054906101000a900473ffffffffffffffffffffffffffffffffffffffff169050919050565b8173ffffffffffffffffffffffffffffffffffffffff168373ffffffffffffffffffffffffffffffffffffffff160361102b576040517f08c379a000000000000000000000000000000000000000000000000000000000815260040161102290612638565b60405180910390fd5b80600560008573ffffffffffffffffffffffffffffffffffffffff1673ffffffffffffffffffffffffffffffffffffffff16815260200190815260200160002060008473ffffffffffffffffffffffffffffffffffffffff1673ffffffffffffffffffffffffffffffffffffffff16815260200190815260200160002060006101000a81548160ff0219169083151502179055508173ffffffffffffffffffffffffffffffffffffffff168373ffffffffffffffffffffffffffffffffffffffff167f17307eab39ab6107e8899845ad3d59bd9653f200f220920489ca2b5937696c318360405161111c9190611b48565b60405180910390a3505050565b611134848484610c87565b61114084848484611626565b61117f576040517f08c379a0000000000000000000000000000000000000000000000000000000008152600401611176906126ca565b60405180910390fd5b50505050565b606060405180602001604052806000815250905090565b60606111a782610ae6565b60006111b1611185565b905060008151116111d157604051806020016040528060008152506111fc565b806111db846117ad565b6040516020016111ec9291906124a4565b6040516020818303038152906040525b915050919050565b600081600001549050919050565b600073ffffffffffffffffffffffffffffffffffffffff168273ffffffffffffffffffffffffffffffffffffffff1603611281576040517f08c379a000000000000000000000000000000000000000000000000000000000815260040161127890612736565b60405180910390fd5b61128a816114b9565b156112ca576040517f08c379a00000000000000000000000000000000000000000000000000000000081526004016112c1906127a2565b60405180910390fd5b6112d86000838360016114fa565b6112e1816114b9565b15611321576040517f08c379a0000000000000000000000000000000000000000000000000000000008152600401611318906127a2565b60405180910390fd5b6001600360008473ffffffffffffffffffffffffffffffffffffffff1673ffffffffffffffffffffffffffffffffffffffff16815260200190815260200160002060008282540192505081905550816002600083815260200190815260200160002060006101000a81548173ffffffffffffffffffffffffffffffffffffffff021916908373ffffffffffffffffffffffffffffffffffffffff160217905550808273ffffffffffffffffffffffffffffffffffffffff16600073ffffffffffffffffffffffffffffffffffffffff167fddf252ad1be2c89b69c2b068fc378daa952ba7f163c4a11628f55a4df523b3ef60405160405180910390a461142b600083836001611620565b5050565b611438826114b9565b611477576040517f08c379a000000000000000000000000000000000000000000000000000000000815260040161146e90612834565b60405180910390fd5b8060066000848152602001908152602001600020908051906020019061149e9291906119f1565b505050565b6001816000016000828254019250508190555050565b60008073ffffffffffffffffffffffffffffffffffffffff166114db83610f80565b73ffffffffffffffffffffffffffffffffffffffff1614159050919050565b600181111561161a57600073ffffffffffffffffffffffffffffffffffffffff168473ffffffffffffffffffffffffffffffffffffffff161461158e5780600360008673ffffffffffffffffffffffffffffffffffffffff1673ffffffffffffffffffffffffffffffffffffffff16815260200190815260200160002060008282546115869190612883565b925050819055505b600073ffffffffffffffffffffffffffffffffffffffff168373ffffffffffffffffffffffffffffffffffffffff16146116195780600360008573ffffffffffffffffffffffffffffffffffffffff1673ffffffffffffffffffffffffffffffffffffffff168152602001908152602001600020600082825461161191906128b7565b925050819055505b5b50505050565b50505050565b60006116478473ffffffffffffffffffffffffffffffffffffffff1661187b565b156117a0578373ffffffffffffffffffffffffffffffffffffffff1663150b7a02611670610b31565b8786866040518563ffffffff1660e01b81526004016116929493929190612962565b6020604051808303816000875af19250505080156116ce57506040513d601f19601f820116820180604052508101906116cb91906129c3565b60015b611750573d80600081146116fe576040519150601f19603f3d011682016040523d82523d6000602084013e611703565b606091505b506000815103611748576040517f08c379a000000000000000000000000000000000000000000000000000000000815260040161173f906126ca565b60405180910390fd5b805181602001fd5b63150b7a0260e01b7bffffffffffffffffffffffffffffffffffffffffffffffffffffffff1916817bffffffffffffffffffffffffffffffffffffffffffffffffffffffff1916149150506117a5565b600190505b949350505050565b6060600060016117bc8461189e565b01905060008167ffffffffffffffff8111156117db576117da611e69565b5b6040519080825280601f01601f19166020018201604052801561180d5781602001600182028036833780820191505090505b509050600082602001820190505b600115611870578080600190039150507f3031323334353637383961626364656600000000000000000000000000000000600a86061a8153600a8581611864576118636129f0565b5b0494506000850361181b575b819350505050919050565b6000808273ffffffffffffffffffffffffffffffffffffffff163b119050919050565b600080600090507a184f03e93ff9f4daa797ed6e38ed64bf6a1f01000000000000000083106118fc577a184f03e93ff9f4daa797ed6e38ed64bf6a1f01000000000000000083816118f2576118f16129f0565b5b0492506040810190505b6d04ee2d6d415b85acef81000000008310611939576d04ee2d6d415b85acef8100000000838161192f5761192e6129f0565b5b0492506020810190505b662386f26fc10000831061196857662386f26fc10000838161195e5761195d6129f0565b5b0492506010810190505b6305f5e1008310611991576305f5e1008381611987576119866129f0565b5b0492506008810190505b61271083106119b65761271083816119ac576119ab6129f0565b5b0492506004810190505b606483106119d957606483816119cf576119ce6129f0565b5b0492506002810190505b600a83106119e8576001810190505b80915050919050565b8280546119fd90612183565b90600052602060002090601f016020900481019282611a1f5760008555611a66565b82601f10611a3857805160ff1916838001178555611a66565b82800160010185558215611a66579182015b82811115611a65578251825591602001919060010190611a4a565b5b509050611a739190611a77565b5090565b5b80821115611a90576000816000905550600101611a78565b5090565b6000604051905090565b600080fd5b600080fd5b60007fffffffff0000000000000000000000000000000000000000000000000000000082169050919050565b611add81611aa8565b8114611ae857600080fd5b50565b600081359050611afa81611ad4565b92915050565b600060208284031215611b1657611b15611a9e565b5b6000611b2484828501611aeb565b91505092915050565b60008115159050919050565b611b4281611b2d565b82525050565b6000602082019050611b5d6000830184611b39565b92915050565b600081519050919050565b600082825260208201905092915050565b60005b83811015611b9d578082015181840152602081019050611b82565b83811115611bac576000848401525b50505050565b6000601f19601f8301169050919050565b6000611bce82611b63565b611bd88185611b6e565b9350611be8818560208601611b7f565b611bf181611bb2565b840191505092915050565b60006020820190508181036000830152611c168184611bc3565b905092915050565b6000819050919050565b611c3181611c1e565b8114611c3c57600080fd5b50565b600081359050611c4e81611c28565b92915050565b600060208284031215611c6a57611c69611a9e565b5b6000611c7884828501611c3f565b91505092915050565b600073ffffffffffffffffffffffffffffffffffffffff82169050919050565b6000611cac82611c81565b9050919050565b611cbc81611ca1565b82525050565b6000602082019050611cd76000830184611cb3565b92915050565b611ce681611ca1565b8114611cf157600080fd5b50565b600081359050611d0381611cdd565b92915050565b60008060408385031215611d2057611d1f611a9e565b5b6000611d2e85828601611cf4565b9250506020611d3f85828601611c3f565b9150509250929050565b600080600060608486031215611d6257611d61611a9e565b5b6000611d7086828701611cf4565b9350506020611d8186828701611cf4565b9250506040611d9286828701611c3f565b9150509250925092565b600060208284031215611db257611db1611a9e565b5b6000611dc084828501611cf4565b91505092915050565b611dd281611c1e565b82525050565b6000602082019050611ded6000830184611dc9565b92915050565b611dfc81611b2d565b8114611e0757600080fd5b50565b600081359050611e1981611df3565b92915050565b60008060408385031215611e3657611e35611a9e565b5b6000611e4485828601611cf4565b9250506020611e5585828601611e0a565b9150509250929050565b600080fd5b600080fd5b7f4e487b7100000000000000000000000000000000000000000000000000000000600052604160045260246000fd5b611ea182611bb2565b810181811067ffffffffffffffff82111715611ec057611ebf611e69565b5b80604052505050565b6000611ed3611a94565b9050611edf8282611e98565b919050565b600067ffffffffffffffff821115611eff57611efe611e69565b5b611f0882611bb2565b9050602081019050919050565b82818337600083830152505050565b6000611f37611f3284611ee4565b611ec9565b905082815260208101848484011115611f5357611f52611e64565b5b611f5e848285611f15565b509392505050565b600082601f830112611f7b57611f7a611e5f565b5b8135611f8b848260208601611f24565b91505092915050565b60008060008060808587031215611fae57611fad611a9e565b5b6000611fbc87828801611cf4565b9450506020611fcd87828801611cf4565b9350506040611fde87828801611c3f565b925050606085013567ffffffffffffffff811115611fff57611ffe611aa3565b5b61200b87828801611f66565b91505092959194509250565b600067ffffffffffffffff82111561203257612031611e69565b5b61203b82611bb2565b9050602081019050919050565b600061205b61205684612017565b611ec9565b90508281526020810184848401111561207757612076611e64565b5b612082848285611f15565b509392505050565b600082601f83011261209f5761209e611e5f565b5b81356120af848260208601612048565b91505092915050565b600080604083850312156120cf576120ce611a9e565b5b60006120dd85828601611cf4565b925050602083013567ffffffffffffffff8111156120fe576120fd611aa3565b5b61210a8582860161208a565b9150509250929050565b6000806040838503121561212b5761212a611a9e565b5b600061213985828601611cf4565b925050602061214a85828601611cf4565b9150509250929050565b7f4e487b7100000000000000000000000000000000000000000000000000000000600052602260045260246000fd5b6000600282049050600182168061219b57607f821691505b6020821081036121ae576121ad612154565b5b50919050565b7f4552433732313a20617070726f76616c20746f2063757272656e74206f776e6560008201527f7200000000000000000000000000000000000000000000000000000000000000602082015250565b6000612210602183611b6e565b915061221b826121b4565b604082019050919050565b6000602082019050818103600083015261223f81612203565b9050919050565b7f4552433732313a20617070726f76652063616c6c6572206973206e6f7420746f60008201527f6b656e206f776e6572206f7220617070726f76656420666f7220616c6c000000602082015250565b60006122a2603d83611b6e565b91506122ad82612246565b604082019050919050565b600060208201905081810360008301526122d181612295565b9050919050565b7f4552433732313a2063616c6c6572206973206e6f7420746f6b656e206f776e6560008201527f72206f7220617070726f76656400000000000000000000000000000000000000602082015250565b6000612334602d83611b6e565b915061233f826122d8565b604082019050919050565b6000602082019050818103600083015261236381612327565b9050919050565b7f4552433732313a20696e76616c696420746f6b656e2049440000000000000000600082015250565b60006123a0601883611b6e565b91506123ab8261236a565b602082019050919050565b600060208201905081810360008301526123cf81612393565b9050919050565b7f4552433732313a2061646472657373207a65726f206973206e6f74206120766160008201527f6c6964206f776e65720000000000000000000000000000000000000000000000602082015250565b6000612432602983611b6e565b915061243d826123d6565b604082019050919050565b6000602082019050818103600083015261246181612425565b9050919050565b600081905092915050565b600061247e82611b63565b6124888185612468565b9350612498818560208601611b7f565b80840191505092915050565b60006124b08285612473565b91506124bc8284612473565b91508190509392505050565b7f4552433732313a207472616e736665722066726f6d20696e636f72726563742060008201527f6f776e6572000000000000000000000000000000000000000000000000000000602082015250565b6000612524602583611b6e565b915061252f826124c8565b604082019050919050565b6000602082019050818103600083015261255381612517565b9050919050565b7f4552433732313a207472616e7366657220746f20746865207a65726f2061646460008201527f7265737300000000000000000000000000000000000000000000000000000000602082015250565b60006125b6602483611b6e565b91506125c18261255a565b604082019050919050565b600060208201905081810360008301526125e5816125a9565b9050919050565b7f4552433732313a20617070726f766520746f2063616c6c657200000000000000600082015250565b6000612622601983611b6e565b915061262d826125ec565b602082019050919050565b6000602082019050818103600083015261265181612615565b9050919050565b7f4552433732313a207472616e7366657220746f206e6f6e20455243373231526560008201527f63656976657220696d706c656d656e7465720000000000000000000000000000602082015250565b60006126b4603283611b6e565b91506126bf82612658565b604082019050919050565b600060208201905081810360008301526126e3816126a7565b9050919050565b7f4552433732313a206d696e7420746f20746865207a65726f2061646472657373600082015250565b6000612720602083611b6e565b915061272b826126ea565b602082019050919050565b6000602082019050818103600083015261274f81612713565b9050919050565b7f4552433732313a20746f6b656e20616c7265616479206d696e74656400000000600082015250565b600061278c601c83611b6e565b915061279782612756565b602082019050919050565b600060208201905081810360008301526127bb8161277f565b9050919050565b7f45524337323155524953746f726167653a2055524920736574206f66206e6f6e60008201527f6578697374656e7420746f6b656e000000000000000000000000000000000000602082015250565b600061281e602e83611b6e565b9150612829826127c2565b604082019050919050565b6000602082019050818103600083015261284d81612811565b9050919050565b7f4e487b7100000000000000000000000000000000000000000000000000000000600052601160045260246000fd5b600061288e82611c1e565b915061289983611c1e565b9250828210156128ac576128ab612854565b5b828203905092915050565b60006128c282611c1e565b91506128cd83611c1e565b9250827fffffffffffffffffffffffffffffffffffffffffffffffffffffffffffffffff0382111561290257612901612854565b5b828201905092915050565b600081519050919050565b600082825260208201905092915050565b60006129348261290d565b61293e8185612918565b935061294e818560208601611b7f565b61295781611bb2565b840191505092915050565b60006080820190506129776000830187611cb3565b6129846020830186611cb3565b6129916040830185611dc9565b81810360608301526129a38184612929565b905095945050505050565b6000815190506129bd81611ad4565b92915050565b6000602082840312156129d9576129d8611a9e565b5b60006129e7848285016129ae565b91505092915050565b7f4e487b7100000000000000000000000000000000000000000000000000000000600052601260045260246000fdfea26469706673582212203e572ad49422a72efda032ad0f64a97a5490258268cf65077dac75b5e953dc0664736f6c634300080e0033456c656374726f6e6963616c6c79204d616e61676520436572746966696361746573",
  "immutableReferences": {},
  "source": "// SPDX-License-Identifier: GPL-3.0\r\n\r\npragma solidity >=0.7.0 <0.9.0;\r\n\r\nimport \"../node_modules/@openzeppelin/contracts/token/ERC721/extensions/ERC721URIStorage.sol\";\r\nimport \"../node_modules/@openzeppelin/contracts/utils/Counters.sol\";\r\n\r\ncontract Kap721 is ERC721URIStorage {\r\n    using Counters for Counters.Counter;\r\n    Counters.Counter private _tokenIds;\r\n\r\n    constructor() ERC721(\"Electronically Manage Certificates\", \"EMC\") {}\r\n\r\n    function awardItem(\r\n        address player,\r\n        string memory tokenURI\r\n    ) public returns (uint256) {\r\n        uint256 newItemId = _tokenIds.current();\r\n        _mint(player, newItemId);\r\n        _setTokenURI(newItemId, tokenURI);\r\n\r\n        _tokenIds.increment();\r\n        return newItemId;\r\n    }\r\n}\r\n",
  "sourcePath": "D:\\Lab-project\\Kubcoin\\contracts\\Kap721.sol",
  "compiler": {
    "name": "solc",
    "version": "0.8.14+commit.80d49f37.Emscripten.clang"
  },
  "schemaVersion": "3.4.11",
  "updatedAt": "2023-06-02T07:49:14.376Z",
  "networkType": "ethereum",
  "devdoc": {
    "kind": "dev",
    "methods": {
      "approve(address,uint256)": {
        "details": "See {IERC721-approve}."
      },
      "balanceOf(address)": {
        "details": "See {IERC721-balanceOf}."
      },
      "getApproved(uint256)": {
        "details": "See {IERC721-getApproved}."
      },
      "isApprovedForAll(address,address)": {
        "details": "See {IERC721-isApprovedForAll}."
      },
      "name()": {
        "details": "See {IERC721Metadata-name}."
      },
      "ownerOf(uint256)": {
        "details": "See {IERC721-ownerOf}."
      },
      "safeTransferFrom(address,address,uint256)": {
        "details": "See {IERC721-safeTransferFrom}."
      },
      "safeTransferFrom(address,address,uint256,bytes)": {
        "details": "See {IERC721-safeTransferFrom}."
      },
      "setApprovalForAll(address,bool)": {
        "details": "See {IERC721-setApprovalForAll}."
      },
      "supportsInterface(bytes4)": {
        "details": "See {IERC165-supportsInterface}."
      },
      "symbol()": {
        "details": "See {IERC721Metadata-symbol}."
      },
      "tokenURI(uint256)": {
        "details": "See {IERC721Metadata-tokenURI}."
      },
      "transferFrom(address,address,uint256)": {
        "details": "See {IERC721-transferFrom}."
      }
    },
    "version": 1
  },
  "userdoc": {
    "kind": "user",
    "methods": {},
    "version": 1
  }
}