{
  "contractName": "KmutnbToken",
  "abi": [
    {
      "inputs": [
        {
          "internalType": "address",
          "name": "owner",
          "type": "address"
        }
      ],
      "stateMutability": "nonpayable",
      "type": "constructor"
    },
    {
      "anonymous": false,
      "inputs": [
        {
          "indexed": true,
          "internalType": "address",
          "name": "owner",
          "type": "address"
        },
        {
          "indexed": true,
          "internalType": "address",
          "name": "spender",
          "type": "address"
        },
        {
          "indexed": false,
          "internalType": "uint256",
          "name": "value",
          "type": "uint256"
        }
      ],
      "name": "Approval",
      "type": "event"
    },
    {
      "anonymous": false,
      "inputs": [
        {
          "indexed": true,
          "internalType": "address",
          "name": "from",
          "type": "address"
        },
        {
          "indexed": true,
          "internalType": "address",
          "name": "to",
          "type": "address"
        },
        {
          "indexed": false,
          "internalType": "uint256",
          "name": "value",
          "type": "uint256"
        }
      ],
      "name": "Transfer",
      "type": "event"
    },
    {
      "inputs": [
        {
          "internalType": "address",
          "name": "owner",
          "type": "address"
        },
        {
          "internalType": "address",
          "name": "spender",
          "type": "address"
        }
      ],
      "name": "allowance",
      "outputs": [
        {
          "internalType": "uint256",
          "name": "",
          "type": "uint256"
        }
      ],
      "stateMutability": "view",
      "type": "function",
      "constant": true
    },
    {
      "inputs": [
        {
          "internalType": "address",
          "name": "spender",
          "type": "address"
        },
        {
          "internalType": "uint256",
          "name": "amount",
          "type": "uint256"
        }
      ],
      "name": "approve",
      "outputs": [
        {
          "internalType": "bool",
          "name": "",
          "type": "bool"
        }
      ],
      "stateMutability": "nonpayable",
      "type": "function"
    },
    {
      "inputs": [
        {
          "internalType": "address",
          "name": "account",
          "type": "address"
        }
      ],
      "name": "balanceOf",
      "outputs": [
        {
          "internalType": "uint256",
          "name": "",
          "type": "uint256"
        }
      ],
      "stateMutability": "view",
      "type": "function",
      "constant": true
    },
    {
      "inputs": [
        {
          "internalType": "uint256",
          "name": "amount",
          "type": "uint256"
        }
      ],
      "name": "burn",
      "outputs": [],
      "stateMutability": "nonpayable",
      "type": "function"
    },
    {
      "inputs": [
        {
          "internalType": "address",
          "name": "account",
          "type": "address"
        },
        {
          "internalType": "uint256",
          "name": "amount",
          "type": "uint256"
        }
      ],
      "name": "burnFrom",
      "outputs": [],
      "stateMutability": "nonpayable",
      "type": "function"
    },
    {
      "inputs": [],
      "name": "decimals",
      "outputs": [
        {
          "internalType": "uint8",
          "name": "",
          "type": "uint8"
        }
      ],
      "stateMutability": "view",
      "type": "function",
      "constant": true
    },
    {
      "inputs": [
        {
          "internalType": "address",
          "name": "spender",
          "type": "address"
        },
        {
          "internalType": "uint256",
          "name": "subtractedValue",
          "type": "uint256"
        }
      ],
      "name": "decreaseAllowance",
      "outputs": [
        {
          "internalType": "bool",
          "name": "",
          "type": "bool"
        }
      ],
      "stateMutability": "nonpayable",
      "type": "function"
    },
    {
      "inputs": [
        {
          "internalType": "address",
          "name": "spender",
          "type": "address"
        },
        {
          "internalType": "uint256",
          "name": "addedValue",
          "type": "uint256"
        }
      ],
      "name": "increaseAllowance",
      "outputs": [
        {
          "internalType": "bool",
          "name": "",
          "type": "bool"
        }
      ],
      "stateMutability": "nonpayable",
      "type": "function"
    },
    {
      "inputs": [],
      "name": "name",
      "outputs": [
        {
          "internalType": "string",
          "name": "",
          "type": "string"
        }
      ],
      "stateMutability": "view",
      "type": "function",
      "constant": true
    },
    {
      "inputs": [],
      "name": "symbol",
      "outputs": [
        {
          "internalType": "string",
          "name": "",
          "type": "string"
        }
      ],
      "stateMutability": "view",
      "type": "function",
      "constant": true
    },
    {
      "inputs": [],
      "name": "totalSupply",
      "outputs": [
        {
          "internalType": "uint256",
          "name": "",
          "type": "uint256"
        }
      ],
      "stateMutability": "view",
      "type": "function",
      "constant": true
    },
    {
      "inputs": [
        {
          "internalType": "address",
          "name": "to",
          "type": "address"
        },
        {
          "internalType": "uint256",
          "name": "amount",
          "type": "uint256"
        }
      ],
      "name": "transfer",
      "outputs": [
        {
          "internalType": "bool",
          "name": "",
          "type": "bool"
        }
      ],
      "stateMutability": "nonpayable",
      "type": "function"
    },
    {
      "inputs": [
        {
          "internalType": "address",
          "name": "from",
          "type": "address"
        },
        {
          "internalType": "address",
          "name": "to",
          "type": "address"
        },
        {
          "internalType": "uint256",
          "name": "amount",
          "type": "uint256"
        }
      ],
      "name": "transferFrom",
      "outputs": [
        {
          "internalType": "bool",
          "name": "",
          "type": "bool"
        }
      ],
      "stateMutability": "nonpayable",
      "type": "function"
    }
  ],
  "bytecode": "0x60806040523480156200001157600080fd5b5060405162001ba538038062001ba5833981810160405281019062000037919062000378565b60405180606001604052806036815260200162001b6f603691396040518060400160405280600681526020017f4b4d55544e4200000000000000000000000000000000000000000000000000008152506a18d0bf423c03d8de0000008383838160039080519060200190620000ae9291906200025e565b508060049080519060200190620000c79291906200025e565b505050620000dc8183620000e760201b60201c565b505050505062000555565b600073ffffffffffffffffffffffffffffffffffffffff168273ffffffffffffffffffffffffffffffffffffffff160362000159576040517f08c379a000000000000000000000000000000000000000000000000000000000815260040162000150906200040b565b60405180910390fd5b6200016d600083836200025460201b60201c565b806002600082825462000181919062000466565b92505081905550806000808473ffffffffffffffffffffffffffffffffffffffff1673ffffffffffffffffffffffffffffffffffffffff168152602001908152602001600020600082825401925050819055508173ffffffffffffffffffffffffffffffffffffffff16600073ffffffffffffffffffffffffffffffffffffffff167fddf252ad1be2c89b69c2b068fc378daa952ba7f163c4a11628f55a4df523b3ef83604051620002349190620004d4565b60405180910390a362000250600083836200025960201b60201c565b5050565b505050565b505050565b8280546200026c9062000520565b90600052602060002090601f016020900481019282620002905760008555620002dc565b82601f10620002ab57805160ff1916838001178555620002dc565b82800160010185558215620002dc579182015b82811115620002db578251825591602001919060010190620002be565b5b509050620002eb9190620002ef565b5090565b5b808211156200030a576000816000905550600101620002f0565b5090565b600080fd5b600073ffffffffffffffffffffffffffffffffffffffff82169050919050565b6000620003408262000313565b9050919050565b620003528162000333565b81146200035e57600080fd5b50565b600081519050620003728162000347565b92915050565b6000602082840312156200039157620003906200030e565b5b6000620003a18482850162000361565b91505092915050565b600082825260208201905092915050565b7f45524332303a206d696e7420746f20746865207a65726f206164647265737300600082015250565b6000620003f3601f83620003aa565b91506200040082620003bb565b602082019050919050565b600060208201905081810360008301526200042681620003e4565b9050919050565b6000819050919050565b7f4e487b7100000000000000000000000000000000000000000000000000000000600052601160045260246000fd5b600062000473826200042d565b915062000480836200042d565b9250827fffffffffffffffffffffffffffffffffffffffffffffffffffffffffffffffff03821115620004b857620004b762000437565b5b828201905092915050565b620004ce816200042d565b82525050565b6000602082019050620004eb6000830184620004c3565b92915050565b7f4e487b7100000000000000000000000000000000000000000000000000000000600052602260045260246000fd5b600060028204905060018216806200053957607f821691505b6020821081036200054f576200054e620004f1565b5b50919050565b61160a80620005656000396000f3fe608060405234801561001057600080fd5b50600436106100cf5760003560e01c806342966c681161008c57806395d89b411161006657806395d89b4114610226578063a457c2d714610244578063a9059cbb14610274578063dd62ed3e146102a4576100cf565b806342966c68146101be57806370a08231146101da57806379cc67901461020a576100cf565b806306fdde03146100d4578063095ea7b3146100f257806318160ddd1461012257806323b872dd14610140578063313ce56714610170578063395093511461018e575b600080fd5b6100dc6102d4565b6040516100e99190610d74565b60405180910390f35b61010c60048036038101906101079190610e2f565b610366565b6040516101199190610e8a565b60405180910390f35b61012a610389565b6040516101379190610eb4565b60405180910390f35b61015a60048036038101906101559190610ecf565b610393565b6040516101679190610e8a565b60405180910390f35b6101786103c2565b6040516101859190610f3e565b60405180910390f35b6101a860048036038101906101a39190610e2f565b6103cb565b6040516101b59190610e8a565b60405180910390f35b6101d860048036038101906101d39190610f59565b610402565b005b6101f460048036038101906101ef9190610f86565b610416565b6040516102019190610eb4565b60405180910390f35b610224600480360381019061021f9190610e2f565b61045e565b005b61022e61047e565b60405161023b9190610d74565b60405180910390f35b61025e60048036038101906102599190610e2f565b610510565b60405161026b9190610e8a565b60405180910390f35b61028e60048036038101906102899190610e2f565b610587565b60405161029b9190610e8a565b60405180910390f35b6102be60048036038101906102b99190610fb3565b6105aa565b6040516102cb9190610eb4565b60405180910390f35b6060600380546102e390611022565b80601f016020809104026020016040519081016040528092919081815260200182805461030f90611022565b801561035c5780601f106103315761010080835404028352916020019161035c565b820191906000526020600020905b81548152906001019060200180831161033f57829003601f168201915b5050505050905090565b600080610371610631565b905061037e818585610639565b600191505092915050565b6000600254905090565b60008061039e610631565b90506103ab858285610802565b6103b685858561088e565b60019150509392505050565b60006012905090565b6000806103d6610631565b90506103f78185856103e885896105aa565b6103f29190611082565b610639565b600191505092915050565b61041361040d610631565b82610b04565b50565b60008060008373ffffffffffffffffffffffffffffffffffffffff1673ffffffffffffffffffffffffffffffffffffffff168152602001908152602001600020549050919050565b6104708261046a610631565b83610802565b61047a8282610b04565b5050565b60606004805461048d90611022565b80601f01602080910402602001604051908101604052809291908181526020018280546104b990611022565b80156105065780601f106104db57610100808354040283529160200191610506565b820191906000526020600020905b8154815290600101906020018083116104e957829003601f168201915b5050505050905090565b60008061051b610631565b9050600061052982866105aa565b90508381101561056e576040517f08c379a00000000000000000000000000000000000000000000000000000000081526004016105659061114a565b60405180910390fd5b61057b8286868403610639565b60019250505092915050565b600080610592610631565b905061059f81858561088e565b600191505092915050565b6000600160008473ffffffffffffffffffffffffffffffffffffffff1673ffffffffffffffffffffffffffffffffffffffff16815260200190815260200160002060008373ffffffffffffffffffffffffffffffffffffffff1673ffffffffffffffffffffffffffffffffffffffff16815260200190815260200160002054905092915050565b600033905090565b600073ffffffffffffffffffffffffffffffffffffffff168373ffffffffffffffffffffffffffffffffffffffff16036106a8576040517f08c379a000000000000000000000000000000000000000000000000000000000815260040161069f906111dc565b60405180910390fd5b600073ffffffffffffffffffffffffffffffffffffffff168273ffffffffffffffffffffffffffffffffffffffff1603610717576040517f08c379a000000000000000000000000000000000000000000000000000000000815260040161070e9061126e565b60405180910390fd5b80600160008573ffffffffffffffffffffffffffffffffffffffff1673ffffffffffffffffffffffffffffffffffffffff16815260200190815260200160002060008473ffffffffffffffffffffffffffffffffffffffff1673ffffffffffffffffffffffffffffffffffffffff168152602001908152602001600020819055508173ffffffffffffffffffffffffffffffffffffffff168373ffffffffffffffffffffffffffffffffffffffff167f8c5be1e5ebec7d5bd14f71427d1e84f3dd0314c0f7b2291e5b200ac8c7c3b925836040516107f59190610eb4565b60405180910390a3505050565b600061080e84846105aa565b90507fffffffffffffffffffffffffffffffffffffffffffffffffffffffffffffffff8114610888578181101561087a576040517f08c379a0000000000000000000000000000000000000000000000000000000008152600401610871906112da565b60405180910390fd5b6108878484848403610639565b5b50505050565b600073ffffffffffffffffffffffffffffffffffffffff168373ffffffffffffffffffffffffffffffffffffffff16036108fd576040517f08c379a00000000000000000000000000000000000000000000000000000000081526004016108f49061136c565b60405180910390fd5b600073ffffffffffffffffffffffffffffffffffffffff168273ffffffffffffffffffffffffffffffffffffffff160361096c576040517f08c379a0000000000000000000000000000000000000000000000000000000008152600401610963906113fe565b60405180910390fd5b610977838383610cd1565b60008060008573ffffffffffffffffffffffffffffffffffffffff1673ffffffffffffffffffffffffffffffffffffffff168152602001908152602001600020549050818110156109fd576040517f08c379a00000000000000000000000000000000000000000000000000000000081526004016109f490611490565b60405180910390fd5b8181036000808673ffffffffffffffffffffffffffffffffffffffff1673ffffffffffffffffffffffffffffffffffffffff16815260200190815260200160002081905550816000808573ffffffffffffffffffffffffffffffffffffffff1673ffffffffffffffffffffffffffffffffffffffff168152602001908152602001600020600082825401925050819055508273ffffffffffffffffffffffffffffffffffffffff168473ffffffffffffffffffffffffffffffffffffffff167fddf252ad1be2c89b69c2b068fc378daa952ba7f163c4a11628f55a4df523b3ef84604051610aeb9190610eb4565b60405180910390a3610afe848484610cd6565b50505050565b600073ffffffffffffffffffffffffffffffffffffffff168273ffffffffffffffffffffffffffffffffffffffff1603610b73576040517f08c379a0000000000000000000000000000000000000000000000000000000008152600401610b6a90611522565b60405180910390fd5b610b7f82600083610cd1565b60008060008473ffffffffffffffffffffffffffffffffffffffff1673ffffffffffffffffffffffffffffffffffffffff16815260200190815260200160002054905081811015610c05576040517f08c379a0000000000000000000000000000000000000000000000000000000008152600401610bfc906115b4565b60405180910390fd5b8181036000808573ffffffffffffffffffffffffffffffffffffffff1673ffffffffffffffffffffffffffffffffffffffff1681526020019081526020016000208190555081600260008282540392505081905550600073ffffffffffffffffffffffffffffffffffffffff168373ffffffffffffffffffffffffffffffffffffffff167fddf252ad1be2c89b69c2b068fc378daa952ba7f163c4a11628f55a4df523b3ef84604051610cb89190610eb4565b60405180910390a3610ccc83600084610cd6565b505050565b505050565b505050565b600081519050919050565b600082825260208201905092915050565b60005b83811015610d15578082015181840152602081019050610cfa565b83811115610d24576000848401525b50505050565b6000601f19601f8301169050919050565b6000610d4682610cdb565b610d508185610ce6565b9350610d60818560208601610cf7565b610d6981610d2a565b840191505092915050565b60006020820190508181036000830152610d8e8184610d3b565b905092915050565b600080fd5b600073ffffffffffffffffffffffffffffffffffffffff82169050919050565b6000610dc682610d9b565b9050919050565b610dd681610dbb565b8114610de157600080fd5b50565b600081359050610df381610dcd565b92915050565b6000819050919050565b610e0c81610df9565b8114610e1757600080fd5b50565b600081359050610e2981610e03565b92915050565b60008060408385031215610e4657610e45610d96565b5b6000610e5485828601610de4565b9250506020610e6585828601610e1a565b9150509250929050565b60008115159050919050565b610e8481610e6f565b82525050565b6000602082019050610e9f6000830184610e7b565b92915050565b610eae81610df9565b82525050565b6000602082019050610ec96000830184610ea5565b92915050565b600080600060608486031215610ee857610ee7610d96565b5b6000610ef686828701610de4565b9350506020610f0786828701610de4565b9250506040610f1886828701610e1a565b9150509250925092565b600060ff82169050919050565b610f3881610f22565b82525050565b6000602082019050610f536000830184610f2f565b92915050565b600060208284031215610f6f57610f6e610d96565b5b6000610f7d84828501610e1a565b91505092915050565b600060208284031215610f9c57610f9b610d96565b5b6000610faa84828501610de4565b91505092915050565b60008060408385031215610fca57610fc9610d96565b5b6000610fd885828601610de4565b9250506020610fe985828601610de4565b9150509250929050565b7f4e487b7100000000000000000000000000000000000000000000000000000000600052602260045260246000fd5b6000600282049050600182168061103a57607f821691505b60208210810361104d5761104c610ff3565b5b50919050565b7f4e487b7100000000000000000000000000000000000000000000000000000000600052601160045260246000fd5b600061108d82610df9565b915061109883610df9565b9250827fffffffffffffffffffffffffffffffffffffffffffffffffffffffffffffffff038211156110cd576110cc611053565b5b828201905092915050565b7f45524332303a2064656372656173656420616c6c6f77616e63652062656c6f7760008201527f207a65726f000000000000000000000000000000000000000000000000000000602082015250565b6000611134602583610ce6565b915061113f826110d8565b604082019050919050565b6000602082019050818103600083015261116381611127565b9050919050565b7f45524332303a20617070726f76652066726f6d20746865207a65726f2061646460008201527f7265737300000000000000000000000000000000000000000000000000000000602082015250565b60006111c6602483610ce6565b91506111d18261116a565b604082019050919050565b600060208201905081810360008301526111f5816111b9565b9050919050565b7f45524332303a20617070726f766520746f20746865207a65726f20616464726560008201527f7373000000000000000000000000000000000000000000000000000000000000602082015250565b6000611258602283610ce6565b9150611263826111fc565b604082019050919050565b600060208201905081810360008301526112878161124b565b9050919050565b7f45524332303a20696e73756666696369656e7420616c6c6f77616e6365000000600082015250565b60006112c4601d83610ce6565b91506112cf8261128e565b602082019050919050565b600060208201905081810360008301526112f3816112b7565b9050919050565b7f45524332303a207472616e736665722066726f6d20746865207a65726f20616460008201527f6472657373000000000000000000000000000000000000000000000000000000602082015250565b6000611356602583610ce6565b9150611361826112fa565b604082019050919050565b6000602082019050818103600083015261138581611349565b9050919050565b7f45524332303a207472616e7366657220746f20746865207a65726f206164647260008201527f6573730000000000000000000000000000000000000000000000000000000000602082015250565b60006113e8602383610ce6565b91506113f38261138c565b604082019050919050565b60006020820190508181036000830152611417816113db565b9050919050565b7f45524332303a207472616e7366657220616d6f756e742065786365656473206260008201527f616c616e63650000000000000000000000000000000000000000000000000000602082015250565b600061147a602683610ce6565b91506114858261141e565b604082019050919050565b600060208201905081810360008301526114a98161146d565b9050919050565b7f45524332303a206275726e2066726f6d20746865207a65726f2061646472657360008201527f7300000000000000000000000000000000000000000000000000000000000000602082015250565b600061150c602183610ce6565b9150611517826114b0565b604082019050919050565b6000602082019050818103600083015261153b816114ff565b9050919050565b7f45524332303a206275726e20616d6f756e7420657863656564732062616c616e60008201527f6365000000000000000000000000000000000000000000000000000000000000602082015250565b600061159e602283610ce6565b91506115a982611542565b604082019050919050565b600060208201905081810360008301526115cd81611591565b905091905056fea264697066735822122056b7ae329102593b603f1d87df4dae6070e4445311467974be62f832b42b2ba764736f6c634300080e00334b494e47204d4f4e474b5554275320554e4956455253495459204f4620544543484e4f4c4f4759204e4f5254482042414e474b4f4b2e",
  "immutableReferences": {},
  "source": "// SPDX-License-Identifier: GPL-3.0\n\npragma solidity >=0.7.0 <0.9.0;\n\n// import \"../node_modules/@openzeppelin/contracts/access/Ownable.sol\";\nimport \"../node_modules/@openzeppelin/contracts/token/ERC20/presets/ERC20PresetFixedSupply.sol\";\n\ncontract KmutnbToken is ERC20PresetFixedSupply {\n    constructor(\n        address owner\n    )\n        ERC20PresetFixedSupply(\n            \"KING MONGKUT'S UNIVERSITY OF TECHNOLOGY NORTH BANGKOK.\",\n            \"KMUTNB\",\n            30000000 * 10 ** 18,\n            owner\n        )\n    {}\n}\n",
  "sourcePath": "/Users/noobtoninja/Job/Programe/kmutnbcoin/contracts/KmutnbToken.sol",
  "compiler": {
    "name": "solc",
    "version": "0.8.14+commit.80d49f37.Emscripten.clang"
  },
  "schemaVersion": "3.4.10",
  "updatedAt": "2023-02-17T16:43:56.043Z",
  "networkType": "ethereum",
  "devdoc": {
    "kind": "dev",
    "methods": {
      "allowance(address,address)": {
        "details": "See {IERC20-allowance}."
      },
      "approve(address,uint256)": {
        "details": "See {IERC20-approve}. NOTE: If `amount` is the maximum `uint256`, the allowance is not updated on `transferFrom`. This is semantically equivalent to an infinite approval. Requirements: - `spender` cannot be the zero address."
      },
      "balanceOf(address)": {
        "details": "See {IERC20-balanceOf}."
      },
      "burn(uint256)": {
        "details": "Destroys `amount` tokens from the caller. See {ERC20-_burn}."
      },
      "burnFrom(address,uint256)": {
        "details": "Destroys `amount` tokens from `account`, deducting from the caller's allowance. See {ERC20-_burn} and {ERC20-allowance}. Requirements: - the caller must have allowance for ``accounts``'s tokens of at least `amount`."
      },
      "decimals()": {
        "details": "Returns the number of decimals used to get its user representation. For example, if `decimals` equals `2`, a balance of `505` tokens should be displayed to a user as `5.05` (`505 / 10 ** 2`). Tokens usually opt for a value of 18, imitating the relationship between Ether and Wei. This is the value {ERC20} uses, unless this function is overridden; NOTE: This information is only used for _display_ purposes: it in no way affects any of the arithmetic of the contract, including {IERC20-balanceOf} and {IERC20-transfer}."
      },
      "decreaseAllowance(address,uint256)": {
        "details": "Atomically decreases the allowance granted to `spender` by the caller. This is an alternative to {approve} that can be used as a mitigation for problems described in {IERC20-approve}. Emits an {Approval} event indicating the updated allowance. Requirements: - `spender` cannot be the zero address. - `spender` must have allowance for the caller of at least `subtractedValue`."
      },
      "increaseAllowance(address,uint256)": {
        "details": "Atomically increases the allowance granted to `spender` by the caller. This is an alternative to {approve} that can be used as a mitigation for problems described in {IERC20-approve}. Emits an {Approval} event indicating the updated allowance. Requirements: - `spender` cannot be the zero address."
      },
      "name()": {
        "details": "Returns the name of the token."
      },
      "symbol()": {
        "details": "Returns the symbol of the token, usually a shorter version of the name."
      },
      "totalSupply()": {
        "details": "See {IERC20-totalSupply}."
      },
      "transfer(address,uint256)": {
        "details": "See {IERC20-transfer}. Requirements: - `to` cannot be the zero address. - the caller must have a balance of at least `amount`."
      },
      "transferFrom(address,address,uint256)": {
        "details": "See {IERC20-transferFrom}. Emits an {Approval} event indicating the updated allowance. This is not required by the EIP. See the note at the beginning of {ERC20}. NOTE: Does not update the allowance if the current allowance is the maximum `uint256`. Requirements: - `from` and `to` cannot be the zero address. - `from` must have a balance of at least `amount`. - the caller must have allowance for ``from``'s tokens of at least `amount`."
      }
    },
    "version": 1
  },
  "userdoc": {
    "kind": "user",
    "methods": {},
    "version": 1
  }
}